:100000000C94320A0C945A0A0C945A0A0C945A0A08
:100010000C945A0A0C945A0A0C945A0A0C945A0AD0
:100020000C945A0A0C945A0A0C9413220C948222AF
:100030000C945A0A0C945A0A0C945A0A0C945A0AB0
:100040000C945A0A0C945A0A0C945A0A0C945A0AA0
:100050000C945A0A0C945A0A0C945A0A0C94C9210A
:100060000C945A0A0C945A0A0C945A0A0C945A0A80
:100070000C945A0A0C945A0A0C945A0A0C945A0A70
:100080000C945A0A0C945A0A0C945A0A0C945A0A60
:100090000C94AA200C945A0A0C945A0A0C945A0AEA
:1000A0000C945A0A0C945A0A0C945A0A0000000044
:1000B000003E5B4F5B3E3E6B4F6B3E1C3E7C3E1CEE
:1000C000183C7E3C181C577D571C1C5E7F5E1C0034
:1000D000183C1800FFE7C3E7FF0018241800FFE7EB
:1000E000DBE7FF30483A060E2629792926407F05AE
:1000F0000507407F05253F5A3CE73C5A7F3E1C1CC4
:1001000008081C1C3E7F14227F22145F5F005F5F83
:1001100006097F017F006689956A6060606060946F
:10012000A2FFA29408047E040810207E2010080874
:100130002A1C08081C2A08081E101010100C1E0C7F
:100140001E0C30383E3830060E3E0E060000000011
:100150000000005F00000007000700147F147F14F8
:10016000242A7F2A1223130864623649562050003D
:1001700008070300001C2241000041221C002A1C29
:100180007F1C2A08083E0808008070300008080814
:100190000808000060600020100804023E51494534
:1001A0003E00427F400072494949462141494D3352
:1001B0001814127F1027454545393C4A49493141B9
:1001C000211109073649494936464949291E000087
:1001D00014000000403400000008142241141414DC
:1001E0001414004122140802015909063E415D59C8
:1001F0004E7C1211127C7F494949363E41414122D1
:100200007F4141413E7F494949417F090909013EFA
:10021000414151737F0808087F00417F4100204021
:10022000413F017F081422417F404040407F021C33
:10023000027F7F0408107F3E4141413E7F0909094A
:10024000063E4151215E7F09192946264949493216
:1002500003017F01033F4040403F1F2040201F3FDC
:100260004038403F63140814630304780403615961
:10027000494D43007F4141410204081020004141A3
:10028000417F04020102044040404040000307084F
:100290000020545478407F2844443838444444284B
:1002A000384444287F385454541800087E090218F2
:1002B000A4A49C787F0804047800447D400020407A
:1002C000403D007F1028440000417F40007C0478BE
:1002D00004787C080404783844444438FC18242406
:1002E0001818242418FC7C08040408485454542486
:1002F00004043F44243C4040207C1C2040201C3C03
:100300004030403C44281028444C9090907C4464F9
:10031000544C44000836410000007700000041368C
:10032000080002010204023C2623263C1EA1A16112
:10033000123A4040207A3854545559215555794144
:100340002254547842215554784020545579400C19
:100350001E527212395555555939545454593955FC
:100360005454580000457C410002457D420001453F
:100370007C407D1211127DF0282528F07C545545D3
:10038000002054547C547C0A097F4932494949323F
:100390003A4444443A324A4848303A4141217A3A50
:1003A00042402078009DA0A07D3D4242423D3D401C
:1003B00040403D3C24FF2424487E4943662B2FFCCB
:1003C0002F2BFF0929F620C0887E09032054547979
:1003D000410000447D413048484A32384040227A4A
:1003E000007A0A0A727D0D19317D2629292F2826C7
:1003F0002929292630484D402038080808080808CF
:100400000808382F10C8ACBA2F102834FA00007B27
:10041000000008142A142222142A1408550055003A
:1004200055AA55AA55AAFF55FF55FF000000FF0029
:10043000101010FF00141414FF001010FF00FF1024
:1004400010F010F0141414FC001414F700FF000056
:10045000FF00FF1414F404FC141417101F10101FD5
:10046000101F1414141F00101010F0000000001FC3
:10047000101010101F10101010F010000000FF10CE
:100480001010101010101010FF10000000FF1400CA
:1004900000FF00FF00001F10170000FC04F41414FC
:1004A0001710171414F404F40000FF00F7141414C8
:1004B00014141414F700F7141414171410101F1048
:1004C0001F141414F4141010F010F000001F101F6B
:1004D0000000001F14000000FC140000F010F010D9
:1004E00010FF10FF141414FF141010101F00000050
:1004F00000F010FFFFFFFFFFF0F0F0F0F0FFFFFF54
:100500000000000000FFFF0F0F0F0F0F38444438AA
:1005100044FC4A4A4A347E02020606027E027E02F9
:1005200063554941633844443C04407E201E200604
:10053000027E020299A5E7A5991C2A492A1C4C7241
:1005400001724C304A4D4D303048784830BC625AC8
:10055000463D3E494949007E0101017E2A2A2A2A58
:100560002A44445F444440514A444040444A514034
:100570000000FF0103E080FF000008086B6B0836F5
:1005800012362436060F090F060000181800000066
:100590001010003040FF0101001F01011E00191D55
:1005A0001712003C3C3C3C00000000000001030727
:1005B0000F1F3F7F0080C0E0F0F8FCFE080B000238
:1005C00002020000090400000102020000052400EC
:1005D000100105240101010424020605240600017E
:1005E0000705810310004009040100020A00000011
:1005F00007050202400000070583024000000403D3
:10060000090412010002EF0201404123368000017B
:100610000102030141726475696E6F204C4C430006
:1006200041726475696E6F204C656F6E6172646FA4
:1006300000DB40A4A62EAF2000A1C8D300408DAEA1
:10064000D580A8000060000000000000000000004D
:1006500000000000E00000000000000000000000BA
:10066000000001E0000000000000000000000000A9
:100670000001F00000000000000000000000000089
:1006800003F0000000000000000000000000000770
:10069000F00000000000000000000000000007F86B
:1006A000000000000000000000000000000FF80043
:1006B000000003C0007E000001E0007F0FF8000092
:1006C0000003C000FE000001E000FFEFF8000000A2
:1006D00003C000FE000001E000FFFFF8000000037F
:1006E000C000F00000000F007FFE7FC0000003C0CC
:1006F00000F00000000F003FFE7FF83FF1FBCFFC51
:10070000FEF3BC3DEFE01FFE7FFF7FFBFFDFFEFE41
:10071000FFBC3DEFE01FC6FFFF7FFBFFDFFEFEFFDC
:10072000BC3DEFE00FE3C7FE787BC3DE1EF0FFBCED
:100730003DEF0007FF87FC787BC3DE1EF0F83C3DF1
:10074000EF0001FFFFF0007BC3C01EF0F03C3DEF67
:100750000001F37FE03FFBC3CFFEF0F03C3DEF0034
:1007600003E33F807FFBC3DFFEF0F03C3DEF00077B
:10077000E73C00787BC3DE1EF0F03C3DEF0007FF56
:10078000BE00787BC3DE1EF0F03C3DEF0007FFFEAD
:1007900000787BC3DE1EF0F03C3DEF000FFFFE0053
:1007A0007FFBFFDFFEF0F03FFDEFE00FFFFF007F7C
:1007B000FBFFDFFEF0F03FFDEFE00FF9FF003E79B9
:1007C000F9CF9EF0F01F3DE7E01FF1FF00000000B1
:1007D00000000000000000001F80FF007FFFFFFFFF
:1007E000FFFFFFFFFFFFE01C007F007FFFFFFFFE1A
:1007F000B46D888D18E000001F007FFFFFFFFE959D
:10080000AD7DB577E000000F007FFFFFFFFEA5ADD7
:100810009D8D19E0000006007FFFFFFFFEB5ADEDE6
:10082000B57EE00000000000018000000000000034
:10083000000000038000000000000000000007C06E
:1008400000000000000000000007C00000000000E1
:10085000000000000FC00000000000000000001FAA
:10086000E00000000000000000001FE000000000A9
:1008700000000000003FE000000000000000000059
:100880003FF00000000000000000007FF0000000CA
:10089000000000001FF87FF0000000000000003F93
:1008A000FE7FF0000000000000003FFF7FF000002E
:1008B00000000000001FFFFBE0000000000000003F
:1008C0000FFFF9FFC00000000000000FFFF9FFF864
:1008D00000000000000007FFF1FFFF000000000023
:1008E0000003FC73FFFF80000000000001FE3FFFDB
:1008F000FF80000000000000FF1E0FFF000000004E
:100900000000007FFE1FFC000000000000003FFF11
:10091000FFF8000000000000000FDFFFE000000013
:10092000000000001F19FFC0000000000000003F91
:100930003CFF00000000000000007E7CF80000008A
:1009400000000000007FFE7C0000000000000000AE
:10095000FFFFFC0000000000000000FFFFFE0000A1
:10096000000000000000FFFFFE000000000000008B
:1009700001FFEFFE0000000000000001FFCFFE00BD
:1009800000000000000003FF07FE00000000000060
:100990000003FC07FE0000000000000003F003FE5F
:1009A00000000000000000018000FE0000000000C8
:1009B00000000000007E00000000000000000000B9
:1009C0003E000000000000000000000C00000000DD
:1009D0000000078000FC000003C000000007800149
:1009E000FC000003C0000000078001FC000003C001
:1009F000000000078001E00000001E0000000780EA
:100A000001E00000001E007FE3F79FF9FDE7787B1F
:100A1000DFC0FFF7FFBFFDFDFF787BDFC0FFF7FF03
:100A2000BFFDFDFF787BDFC0F0F787BC3DE1FF78BD
:100A30007BDE00F0F787BC3DE1F0787BDE0000F75D
:100A400087803DE1E0787BDE007FF7879FFDE1E076
:100A5000787BDE00FFF787BFFDE1E0787BDE00F00A
:100A6000F787BC3DE1E0787BDE00F0F787BC3DE135
:100A7000E0787BDE00F0F787BC3DE1E0787BDE00CC
:100A8000FFF7FFBFFDE1E07FFBDFC0FFF7FFBFFD2A
:100A9000E1E07FFBDFC07CF3F39F3DE1E03E7BCFF5
:100AA000C00000000000000000000000FFFFFFFF8A
:100AB000FFFFFFFFFFFFC0FFFFFFFFFD68DB111A15
:100AC00031C0FFFFFFFFFD2B5AFB6AEFC0FFFFFFA6
:100AD000FFFD4B5B3B1A33C0FFFFFFFFFD6B5BDB92
:100AE0006AFDC000000000000000000000000000DF
:100AF00000000000000000000000000000000000F6
:100B000000000000000000000000000000000000E5
:100B100000000000000000000000000000000000D5
:100B200000000000000000000000000000000000C5
:100B300000000000000000000000000000000000B5
:100B400000000000000000000000000000000000A5
:100B50000000000000000000000000000000000095
:100B6000000000000000007FFFFFFFFFFFFFFE000E
:100B700000000000000000F00000000000000F0076
:100B800000000000000000C00000000000000300A2
:100B9000000000000000019FFFFFFFFFFFFFF98042
:100BA000000000000000019FFFFFFFFFFFFFF98032
:100BB000000000000000019FFFFFFFFFFFFFF98022
:100BC000000000000000019FFFFFFFFFFFFFF98012
:100BD000000000000000019FFFFFFFFFFFFFF98002
:100BE000000000000000019FFFFFFFFFFFFFF980F2
:100BF000000000000000019FC00000000000018014
:100C0000000000000000019F800000000000018043
:100C1000000000000000019F800000000000018033
:100C2000000000000000019F800000000000018023
:100C3000000000000000019F800000000000018013
:100C4000000000000000019FC000000000000180C3
:100C5000000000000000019FFFFFFF07FFFF018071
:100C6000000000000000019FFFFFFF87FFFF0180E1
:100C7000000000000000019FFFFFFF87FFFF0180D1
:100C8000000000000000019FFFFFFF87FFFF0180C1
:100C9000000000000000019FFFFFFF87FFFF0180B1
:100CA000000000000000019FFFFFFF87FFFF0180A1
:100CB000000000000000019FC3F87F87F0FF018063
:100CC000000000000000019F83F83F87F07F018053
:100CD000000000000000019F83F83F87F07F018043
:100CE000000000000000019F83F83F87F07F018033
:100CF000000000000000019F83F87F87F07F0180E3
:100D0000000000000000019F83FFFF87F07F01804B
:100D1000000000000000019F83FFFF87F07F01803B
:100D2000000000000000019F83FFFF87F07F01802B
:100D3000000000000000019F83FFFF87F07F01801B
:100D4000000000000000019F83FFFF87F07F01800B
:100D5000000000000000019F83FFFF87F07F0180FB
:100D6000000000000000019F83F87F87F0FF0180F2
:100D7000000000000000019F83F83F87FFFF018013
:100D8000000000000000019F83F83F87FFFF018003
:100D9000000000000000019F83F83F87FFFF0180F3
:100DA000000000000000019F83F83F87FFFF0180E3
:100DB000000000000000019F83F83F87FFFF0180D3
:100DC000000000000000019F83F83F07FFFFF18053
:100DD000000000000000019F80F83E01FFFFF98045
:100DE000000000000000019F800000000001F98069
:100DF000000000000000019F800000000001F98059
:100E0000000000000000019F800000000001F98048
:100E1000000000000000019F800000000001F98038
:100E2000000000000000019F800000000001F98028
:100E300000000000000000C00000000000000300EF
:100E400000000000000000F00000000000000F00A3
:100E5000000000000000007FFFFFFFFFFFFFFE001B
:100E60000000000000000000000000000000000082
:100E70000000000000000000000000000000000072
:100E80000000000000000000000000000000000062
:100E90000000000000000000000000000000000052
:100EA0000000000000000000000000000000000042
:100EB0000000000000000000000000000000000032
:100EC0000000000000000000000000000000000022
:100ED0000000000000000000000000000000000012
:100EE0000000000000000000000000000000000002
:100EF00000000000000000000000000000000000F2
:100F000000000000000000000000000000000000E1
:100F100000000000000000000000000000000000D1
:100F200000000000000000000000000000000000C1
:100F300000000000000000000000000000000000B1
:100F400000000000000000000000000000000000A1
:100F50000000000000000000000000000000000091
:100F60000000000000000000000000000000000081
:100F70000000000000000000000000000000000071
:100F80000000000000000000000000000000000061
:100F90000000000000000000000000000000000051
:100FA00000000000000000000FFFFFFFFFF0000046
:100FB00000000000000000000FFFFFFFFFF0000036
:100FC00000000000000000000FFFFFFFFFF0000026
:100FD00000000000000000000FFFFFFFFFF0000016
:100FE00000000000000000000FFFFFFFFFF0000006
:100FF00000000000000000000FFFFFFFFFF00000F6
:1010000000000000000000000FFFFFFFFFF00000E5
:1010100000000000000000000FFFFFFFFFF00000D5
:1010200000000000000000000FFFFFFFFFF00000C5
:1010300000000000000000000FFFFFFFFFF00000B5
:1010400000000000000000000FFFFFFFFFF00000A5
:1010500000000000000000000FFFFFFFFFF0000095
:1010600000000000000000000FFFFFFFFFF0000085
:1010700000000000000000000FFFFFFFFFF0000075
:1010800000000000000000000FFFFE7FFFF00000E6
:1010900000000000000000000FFFFE7FFFF00000D6
:1010A00000000000000000000FFFFC3FFFF0000008
:1010B00000000000000000000FFFF81FFFF000001C
:1010C00000000000000000000FFFF81FFFF000000C
:1010D00000000000000000000FFFF00FFFF0000014
:1010E00000000000000000000FFFF00FFFF0000004
:1010F00000000000000000000FFFE007FFF000000C
:1011000000000000000000000FFFE007FFF00000FB
:1011100000000000000000000FFFC003FFF000000F
:1011200000000000000000000FFF8001FFF0000041
:1011300000000000000000000FFF8001FFF0000031
:1011400000000000000000000FFF0000FFF00000A2
:1011500000000000000000000FFF0000FFF0000092
:1011600000000000000000000FFE00007FF0000003
:1011700000000000000000000FFE00007FF00000F3
:1011800000000000000000000FFC00003FF0000025
:1011900000000000000000000FFFC003FFF000008F
:1011A00000000000000000000FFFC003FFF000007F
:1011B00000000000000000000FFFC003FFF000006F
:1011C00000000000000000000FFFC003FFF000005F
:1011D00000000000000000000FFFC003FFF000004F
:1011E00000000000000000000FFFC003FFF000003F
:1011F00000000000000000000FFFC003FFF000002F
:1012000000000000000000000FFFC003FFF000001E
:1012100000000000000000000FFFC003FFF000000E
:1012200000000000000000000000000000000000BE
:1012300000000000000000000000000000000000AE
:10124000000000000000000000000000000000009E
:10125000000000000000000000000000000000008E
:10126000000000000000000000000000000000007E
:10127000000000000000000000000000000000006E
:10128000000000000000000000000000000000005E
:10129000000000000000000000000000000000004E
:1012A000000000000000000000000000000000003E
:1012B000000000000000000000000000000000002E
:1012C000000000000000000000000000000000001E
:1012D000000000000000000000000000000000000E
:1012E000000000070605040100080A0B0C0D0900A8
:1012F000000000240027002A002D0030000000001C
:1013000000250028002B002E0031000000000023E3
:1013100000260029002C002F000404040404030408
:101320000502020202040302020202060606060683
:101330000604040202020404040802011040804072
:1013400010204080408008020401804020100201EB
:10135000108010204040200000000200090F000013
:10136000030401000C000000000000000000000069
:101370000000000000002200FF210005010902A179
:10138000010901A10085010509190129031500259D
:101390000195037501810295017505810305010918
:1013A00030093109381581257F750895038106C0FC
:1013B000C000000000000000002A2B2800000000F0
:1013C000000000000000000000000000000000001D
:1013D000002C9EB4A0A1A2A434A6A7A5AE362D379A
:1013E00038271E1F20212223242526B333B62EB7EB
:1013F000B89F8485868788898A8B8C8D8E8F909103
:1014000092939495969798999A9B9C9D2F3130A38F
:10141000AD350405060708090A0B0C0D0E0F101157
:1014200012131415161718191A1B1C1DAFB1B0B5DD
:101430000005010906A1018502050719E029E71544
:1014400000250175019508810295017508810395B4
:10145000067508150025730507190029738100C05A
:10146000E7245E2E11241FBECFEFDAE0DEBFCDBF32
:1014700024E0AEE5B2E001C01D92AE34B207E1F760
:1014800012E0A0E0B1E0EAE3F2E602C005900D92BE
:10149000AE35B107D9F71AE0C1E3DAE004C021970D
:1014A000FE010E94F82EC033D107C9F70E943E26E4
:1014B0000C9410310C9400000895FC01809172038B
:1014C000882311F13FB7F89482E08093E9002091DE
:1014D000F200822F90E01816190614F481E090E0D3
:1014E000882339F0289844E6409371034091F10035
:1014F0004083222339F02091F200211103C02BE612
:101500002093E8003FBF08958FEF9FEF0895DC011F
:10151000FB0112962C911297848195812817190648
:1015200041F491818081813A31F49D7F81E0913055
:1015300009F080E008958132E1F79B3029F482813F
:101540001F968C9381E008959A3099F78281509686
:101550008C93F8CFDC01FB0188E4808389E48183EC
:1015600084E482831D969C911D979F709F5B93835B
:101570001D968D919C9124E0969587952A95E1F78B
:101580008F708F5B848385E0089520910C03260F74
:101590003327331F21323105ECF420913203FC0153
:1015A00090E080E0243069F082E00895A0910C037F
:1015B0002191AC0146515D4FA40FB52FB11D2C9365
:1015C0000196861798F380910C03680F60930C03C3
:1015D00080E0089581E0089508950895E091E30280
:1015E0008091E202E81730F4F0E0EE53FD4F808185
:1015F00090E008958FEF9FEF08959091E30280911E
:10160000E2022FEF3FEF981748F4E92FF0E0EE5396
:10161000FD4F208130E09F5F9093E302C901089560
:101620008091E2029091E302891B990B0895CF9279
:10163000DF92EF92FF920F931F93CF93DF937C0182
:10164000CB018A0120917C03222389F0EB016B01FD
:10165000C40ED51ECC15DD0569F06991D701ED9159
:10166000FC910190F081E02DC7010995F3CF642F23
:101670000E94C50AC801DF91CF911F910F91FF9081
:10168000EF90DF90CF900895CF93DF931F92CDB767
:10169000DEB7698320917C032223F9F0209179033E
:1016A000203258F021E030E0FC013383228390E0C7
:1016B00080E00F90DF91CF91089580917A03E82F19
:1016C000F0E0EE55FD4F998190838F5F80937A0310
:1016D0008093790381E090E0ECCF61E0CE01019648
:1016E0000E94C50AF7CF80919A0281110DC082E055
:1016F0008093960284E08093970210929902109250
:10170000980281E080939A0286E992E00895CF934F
:10171000DF9380916903811167C081E080935C034E
:1017200080935D0322E633E030935F0320935E03F2
:10173000109261031092600329E231E03093590363
:10174000209358031092640310926303109266036F
:1017500010926503809367038093680381EC809304
:1017600062030E94730BFC01818190915C03482FFE
:10177000490F5527551F483051059CF5A281B3816B
:10178000109709F528E533E03383228320812093E5
:101790005A0380935B0380915D03820F80832091C5
:1017A0005E03A22FB0915F038A2F821B8917C8F4B2
:1017B00081813D91C82FD0E0C25FDE4F38838F5FBB
:1017C0008183F2CFD90118962D913C91199721155B
:1017D0003105C1F728E533E019963C932E9318970D
:1017E000D5CF81E08093690388E593E0DF91CF91C5
:1017F000089581508F3008F047C0E82FF0E0ED5F8A
:10180000F34F0C94F82E200C240C120C180C1C0C0A
:10181000440C440C440C270C2D0C310C350C3B0CA7
:10182000440C3F0C809180008F7780938000089556
:10183000809180008F7DF9CF80918000877FF5CFE8
:1018400084B58F7784BD089584B58F7DFBCF80915B
:1018500090008F77809390000895809190008F7D05
:10186000F9CF80919000877FF5CF8091C0008F776E
:101870008093C00008958091C0008F7DF9CF809142
:10188000C200877F8093C2000895CF93DF93282FF3
:1018900030E0F901E95AFC4E8491F901E85CFC4E14
:1018A000D491F901E75EFC4EC491CC23A1F08111E3
:1018B0000E94F90BEC2FF0E0EE0FFF1FE55FFC4EEE
:1018C000A591B491EC91ED2381E090E009F480E0E2
:1018D000DF91CF91089580E090E0FACFCF93DF932E
:1018E000EC0187E00E94450C0197F9F486E00E9424
:1018F000450C892BD1F48091770390917803892B43
:10190000A1F488819981209175033091760321504B
:101910003109821793071CF401969983888381E02B
:1019200090E0909378038093770387E00E94450CC2
:10193000892B01F586E00E94450C0197D9F480912E
:10194000770390917803892BA9F48881998120915C
:1019500075033091760382179307ECF41816190675
:10196000D4F401979983888381E090E09093780381
:101970008093770387E00E94450C892B49F086E02D
:101980000E94450C892B21F0109278031092770366
:10199000DF91CF91089519821882E6CF1F93CF93DC
:1019A000DF93282F30E0F901E95AFC4E8491F901C8
:1019B000E85CFC4ED491F901E75EFC4EC491CC2367
:1019C000A9F0162F81110E94F90BEC2FF0E0EE0F19
:1019D000FF1FE350FD4EA591B4918FB7F894EC91A1
:1019E000111108C0D095DE23DC938FBFDF91CF911A
:1019F0001F910895DE2BF8CF1092320381E080937F
:101A000034031092330361E082E00E94CE0C61E067
:101A100083E00E94CE0CE9EBF0E080818E7F808332
:101A200080818D7F808388E48093B80085E48093F3
:101A3000BC000895CF93DF9391E09093E90288234F
:101A4000B9F0C091B800D091BA008091BC008A7BF7
:101A50008093BC0060E082E00E94CE0C60E083E0F6
:101A60000E94CE0C0E94FC0CD093BA00C093B80028
:101A7000DF91CF910895CF93DF9390E0FC01E85C74
:101A8000FC4E2491875E9C4EFC0184918823C9F012
:101A900090E0880F991FFC01E151FD4EA591B49192
:101AA000FC01E350FD4EC591D49161110DC09FB76B
:101AB000F8948C91209582238C9388812823288305
:101AC0009FBFDF91CF910895623051F49FB7F89492
:101AD0003C91822F809583238C93E8812E2BEFCF2E
:101AE0008FB7F894EC912E2B2C938FBFEACF8231D5
:101AF00008F08251E82FF0E0ED51FD4EE491909115
:101B00007B008E2F880F880F80729F7D892B80939A
:101B10007B00E770E064E0937C0080917A00806451
:101B200080937A0080917A0086FDFCCF80917800C6
:101B30009091790008953FB7F89480919202909126
:101B40009302A0919402B091950226B5A89B05C07E
:101B50002F3F19F00196A11DB11D3FBFBA2FA92F2C
:101B6000982F8827BC01CD01620F711D811D911D29
:101B700042E0660F771F881F991F4A95D1F7089595
:101B8000CF92DF92EF92FF920F931F93CF93DF9349
:101B9000D091790381E0D13208F09CC0C0917B03E1
:101BA0000E949B0D6B017C018091320381116CC0FE
:101BB00082E08093320381E0809334038FEF80933F
:101BC000310310925603D0935503A2EAB2E0E5E345
:101BD000F3E080E0D8138DC0109257038091570333
:101BE000CC0FC82BC093570380913303813009F089
:101BF00084C0109233030E949B0D6B017C01809185
:101C000057038093BB008091E5029091E602A0917A
:101C1000E702B091E802892B8A2B8B2BA1F00E945E
:101C20009B0D0091E5021091E6022091E7023091B0
:101C3000E8026C197D098E099F0906171707280706
:101C4000390708F442C08091BC0083FDD8CF85ECF1
:101C50008093BC000E949B0D6B017C01809132033C
:101C6000823009F44CC0809131038F3F09F469C080
:101C700080913103803209F466C080913103803352
:101C800009F463C084E026C08091E5029091E602E9
:101C9000A091E702B091E802892B8A2B8B2B09F4E3
:101CA00083CF0E949B0D0091E5021091E6022091E6
:101CB000E7023091E8026C197D098E099F09061729
:101CC00017072807390708F06FCF8091E4020E94B8
:101CD0001A0D85E010927A031092790310927C031A
:101CE000DF91CF911F910F91FF90EF90DF90CF90F8
:101CF00008959D9191938F5F6DCF85EEA9CF8091CF
:101D0000E5029091E602A091E702B091E802892BEA
:101D10008A2B8B2B09F4A2CF0E949B0D0091E50228
:101D20001091E6022091E7023091E8026C197D09DA
:101D30008E099F09061717072807390708F08ECF65
:101D4000C4CF80E0C7CF82E0C5CF83E0C3CF8F92FE
:101D50009F92AF92BF92CF92DF92EF92FF924B0190
:101D60005C010E949B0D6B017C010E949B0D6C1914
:101D70007D098E099F09683E734081059105A8F38E
:101D800021E0821A9108A108B10888EEC80E83E00C
:101D9000D81EE11CF11C81149104A104B10429F79F
:101DA000FF90EF90DF90CF90BF90AF909F908F907B
:101DB00008952FB7F89460918E0270918F028091F0
:101DC0009002909191022FBF08954091600250912E
:101DD000610220915E0230915F0242175307B4F412
:101DE0009091E8009570E1F39091E80092FD19C0A0
:101DF0008093F100809160029091610201968F734F
:101E00009927892B19F48EEF8093E8008091600266
:101E1000909161020196909361028093600281E04B
:101E2000089580E00895DF92EF92FF920F931F9341
:101E3000CF93DF93D82E8A01EB017B01E40EF51ED0
:101E4000CE15DF0559F0D7FE12C0FE0184910E9425
:101E5000E50E21968111F4CF0FEF1FEFC801DF913E
:101E6000CF911F910F91FF90EF90DF90089588819F
:101E7000EECFEF92FF920F931F93CF93DF93FB016F
:101E80002081213871F52381223259F5DC01129627
:101E90004C91248135814217130619F5EC010B850D
:101EA0001C85F12CE12C0115110589F0F801448104
:101EB00055816281738180E80E94130F8F3F9807DC
:101EC00049F0E80EF91ED8010D911C91ECCF81E08C
:101ED0008F87C701DF91CF911F910F91FF90EF90F6
:101EE000089590E080E0F6CFCF93DF93CDB7DEB7D3
:101EF00069970FB6F894DEBF0FBECDBFFC01DB01C2
:101F00008C918F5F8C939E012D5F3F4F8DE0D901A7
:101F10001D928A95E9F729E0298384E08A8391E07C
:101F20009D8383E08E832A8721E22B879C879D8770
:101F30009F8722E2288B27E02B8B25E02C8B8E8B32
:101F400020E430E0388F2F8B998F82818B839585A9
:101F50008685998B8A8B838180688D8B49E150E0DF
:101F6000BE016F5F7F4F80E00E94130F69960FB62E
:101F7000F894DEBF0FBECDBFDF91CF9108950F93D0
:101F80001F93CF93DF931F92CDB7DEB782E0898393
:101F900042E450E06CEB75E080E80E94130F0E9471
:101FA000730BDC0112960D911C910115110589F03E
:101FB000D801ED91FC910280F381E02DBE016F5FAD
:101FC0007F4FC801099597FD04C0F8010085118570
:101FD000ECCF89810F90DF91CF911F910F910895E0
:101FE0002FB7F89487708093E9009091E800892FCB
:101FF000807295FF04C09091F20080E4891B2FBF8E
:1020000008957F928F929F92AF92BF92CF92DF926C
:10201000EF92FF920F931F93CF93DF93C82E8B0104
:102020007A0180917203811110C08FEF9FEFDF91D1
:10203000CF911F910F91FF90EF90DF90CF90BF90C5
:10204000AF909F908F907F9008958091640280FF61
:1020500005C08091E00082608093E000CE2DDF2DEE
:10206000D12C8AEFB82E8C2D8770982E8C2D8072F3
:10207000882E8C2D8074782E9AE3A92E209719F43F
:10208000DD2009F452C08C2D0E94F00F81110AC08E
:10209000BA94BB2051F261E070E080E090E00E94D1
:1020A000A70EECCF8C171D0611F00CF08C2F9FB7EC
:1020B000F8949092E9002091E80025FD02C09FBFAE
:1020C000DDCF282F30E0C21BD30B882029F08150B0
:1020D000A0F01092F100FBCFF801C7FC0AC08150BC
:1020E00050F041914093F100FACF44914093F100B8
:1020F00031968150D0F7020F131FDD2021F0A092FE
:10210000E800D12CDCCF8091E80085FD07C0A092CB
:10211000E800DD24D394209791F2F3CF209779F64D
:10212000772069F2A092E800CACF5D9884E6809398
:102130006302C7017CCFAF92BF92CF92DF92EF9242
:10214000FF920F931F93CF93DF931F92CDB7DEB70C
:102150007C0169836A01590141E050E0BE016F5F73
:102160007F4FFC0183810E9401108C0197FD0BC001
:10217000F7018381A501B60180640E940110080F58
:10218000191F97FD8C01C8010F90DF91CF911F910E
:102190000F91FF90EF90DF90CF90BF90AF90089598
:1021A000CF93DF9300D000D0CDB7DEB72091DB0313
:1021B000298381382FEF9207F4F080389105ECF4F1
:1021C0008A8361388FEF7807D4F060387105CCF4DA
:1021D0006B834C830E94870B24E030E0AE014F5F9D
:1021E0005F4F61E00E949B100F900F900F900F9037
:1021F000DF91CF91089581E8E3CF8FE7E1CF61E8E8
:10220000E7CF6FE7E5CF9091DB038095892398179F
:1022100049F08093DB0340E070E060E090E080E014
:102220000C94D01008959091DB03892B981749F0F6
:102230008093DB0340E070E060E090E080E00C948D
:10224000D0100895CF93DF93EC010E94870B28E014
:1022500030E0AE0162E0DF91CF910C949B10EAEE8A
:10226000F3E0168217821086118612861386148276
:102270008EEE93E00C942211615030F02091F10029
:10228000FC0120830196F8CF289884E6809371039F
:102290000895AF92BF92CF92DF92EF92FF920F9389
:1022A0001F93CF93DF936C017B018B01040F151FEC
:1022B000EB015E01AE18BF08C017D10759F0699154
:1022C000D601ED91FC910190F081E02DC6010995B8
:1022D000892B79F7C501DF91CF911F910F91FF9065
:1022E000EF90DF90CF90BF90AF900895CF93DF93A2
:1022F000EC0180910B01882331F083E00E940110F2
:102300001816190634F081E090E09B838A8380E000
:1023100090E0DF91CF910895CF93DF931F92CDB7D7
:10232000DEB76983DC01ED91FC910280F381E02D41
:1023300041E050E0BE016F5F7F4F09950F90DF9144
:10234000CF91089583E08093E9008091F200882383
:1023500019F08AE38093E800089583E00E94F00F6B
:1023600090E00895CF93DF931F92CDB7DEB7FC01C5
:102370008485958597FD08C02FEF3FEF358724872B
:102380000F90DF91CF910895CE0101960E945D0AD2
:10239000019719F4898190E0F3CF8FEF9FEFF0CF91
:1023A0000F931F93CF93DF931F92CDB7DEB78C01AE
:1023B000FC018485958597FF0BC0CE0101960E9494
:1023C0005D0A019771F4898190E0F801958784870F
:1023D000F801848595850F90DF91CF911F910F9122
:1023E00008958FEF9FEFF1CFFC018485958597FDD0
:1023F0000BC09FB7F89482E08093E9008091F200CF
:102400009FBF90E0019608959FB7F89482E0809373
:10241000E9008091F2009FBF90E00895CF92DF9293
:10242000EF92FF920F931F93CF93DF936C01EB0119
:102430007B01E40EF51E10E000E0CE15DF0581F013
:1024400069916D30D1F3D601ED91FC910190F0814D
:10245000E02DC6010995892B19F00F5F1F4FEDCFB5
:10246000C801DF91CF911F910F91FF90EF90DF9006
:10247000CF900895DC01683888F1685816968C91E1
:102480001697861721F117968C9117978617F9F0F2
:1024900018968C9118978617D1F019968C911997E8
:1024A0008617A9F01A968C911A97861781F01B96B9
:1024B0008C911B97861759F0FD01369690E080E0CD
:1024C000219121114FC08A0F9B1FFC016683CD0112
:1024D00004960E94221181E090E00895862F90E0FA
:1024E00067FF12C0FC01E058F10921E030E001C0B3
:1024F000220FEA95EAF714968C911497822B149682
:102500008C93149760E0BACF1C96ED91FC911D97C7
:10251000E80FF91F6491611109C081E090E0139602
:102520009C938E93129790E080E00895862F807C94
:10253000803C69F414968C911497806414968C9363
:1025400014976F73623309F099CF64E697CF67FFF2
:10255000F9CF14968C911497826014968C931497EB
:102560006F77F0CF01968630910509F0A9CFD5CFCE
:10257000EF92FF921F93CF93DF93EC01162F0E94EF
:102580003A127C01E8E7E10F183890F4812F90E0CF
:1025900017FF2AC0FC01E058F10981E090E001C07A
:1025A000880FEA95EAF780959C8189238C83E0E087
:1025B000DE0186E0EE2341F016969C911697E91312
:1025C00003C016961C921697815011968111F2CF76
:1025D000CE0104960E942211C7019927DF91CF9165
:1025E0001F91FF90EF900895EC85FD85E80FF91F8E
:1025F000E491EE2389F38E2F807C803C41F48C8122
:102600008F7B8C83EF73E23399F6E4E6D1CFE7FF5B
:10261000FACF8C818D7F8C83EF77F5CFEF92FF928D
:102620000F931F93CF93DF93EC01EC80FD806E1529
:102630007F050CF070C057FF04C0240F351F50E019
:1026400040E08E819F81FA01E20FF31F8E179F07F2
:102650001CF49C01241B350B121613060CF05BC0F6
:10266000922F842F8695869586958E9DD0018F9D7D
:10267000B00D11246A0F7B1FAF8DB8A1A60FB71F35
:10268000477049F188E0841B482F682F70E0FB01F8
:10269000EC54FA4FE491281708F063C0621B7109EB
:1026A0002FEF30E002C0359527956A95E2F7E223D7
:1026B0000130110539F0B0F10230110561F58C914E
:1026C000E82702C08C91E82BEC93941720F12C8121
:1026D0003D81A20FB31FE92FE41BE83078F00230F0
:1026E000110521F58E2F9C9190959C932C813D8115
:1026F000A20FB31F88508830B0F7E770EE2359F06F
:10270000F0E0E455FA4FE49101301105F9F010F1D1
:102710000230110519F1DF91CF911F910F91FF90B8
:10272000EF900895E0958C91E823CECF81E00115DC
:10273000110509F480E081959E2F8C932C813D81B9
:10274000A20FB31F98509830C0F7D7CF8C91E82BC9
:10275000EC93E1CFE0958C91E823FACF8C91E827B8
:10276000F7CF0130110509F4ADCFE0F202301105C9
:1027700009F4A5CFAE0DBF1DAECF0F931F93CF931E
:10278000DF9377FF04C0260F371F70E060E0DC01A5
:102790001496CD91DC91FB01E20FF31FCE17DF07FA
:1027A0001CF49E01261B370B121613064CF5FA017A
:1027B00057FD3796A3E0F595E795AA95E1F7EC9FCD
:1027C000D001ED9FB00DFC9FB00D11246A0F7B1F4F
:1027D000DC015F96ED91FC91E60FF71F47705527DE
:1027E00081E090E001C0880F4A95EAF7482F013058
:1027F000110559F0A8F02E0F3F1F02301105E1F02E
:10280000DF91CF911F910F9108952E0F3F1FE21777
:10281000F307B1F38191DF011197842B8C93F7CFEC
:1028200080952E0F3F1FE217F30751F39191DF01BF
:10283000119798239C93F7CFE217F30709F381913F
:10284000DF01119784278C93F7CF0F931F93FA0121
:10285000DC0156964C9156974230E9F04330A1F195
:10286000413061F514964D915C91DA01AE1BBF0BBE
:10287000FD01E21BF30B77FD0BC0DC0116964D91B9
:102880005C916417750724F4AB01BF010E94BD136E
:102890001F910F91089514964D915C91DA01A61B3A
:1028A000B70BBD0161507109DC0116964D915C9129
:1028B000DA01AE1BBF0BFD01E21BF30B77FDE8CF86
:1028C000AF010E940E13E4CF16964D915C91DA0190
:1028D000A61BB70BBD0161507109CDCF0F931F939C
:1028E000FA01DC0156964C9156974230A9F04330DC
:1028F00091F1413019F514964D915C91DA01AE1BBE
:10290000BF0BFD013197F7FD04C0AB01BF010E9471
:102910000E131F910F91089514964D915C91DA0159
:10292000A61BB70BBD01DC0116964D915C91DA0137
:10293000AE1BBF0BFD013197621B730BF7FDE9CF97
:10294000DC0116964D915C91E417F50714F7AF0181
:102950000E94BD13DECF16964D915C91DA01A61B45
:10296000B70BBD01621B730BCECFFC0177FD64C0BA
:1029700080859185681779070CF05EC057FD5CC0B3
:1029800082859385481759070CF056C08689823096
:10299000B1F0833029F1813041F484819581841B29
:1029A000950BAB01BC01615071092130310509F172
:1029B00008F443C02230310509F463C008958481CE
:1029C0009581DC01A61BB70BBD01615071098681A1
:1029D0009781DC01A41BB50BAD0141505109E5CF36
:1029E00086819781861B970BBA01AC014150510932
:1029F000DCCFCA0157FD0796A3E095958795AA9568
:102A0000E1F7A481B5818A9F90018B9F300D9A9F39
:102A1000300D1124620F731F078CF0A1E02DE60F1B
:102A2000F71F4770552721E030E001C0220F4A957B
:102A3000EAF78081822B80830895CA0157FD0796AB
:102A400033E0959587953A95E1F7A481B5818A9F02
:102A500090018B9F300D9A9F300D1124620F731FD0
:102A6000078CF0A1E02DE60FF71F4770552781E096
:102A700090E001C0880F4A95EAF7809590818923FC
:102A8000DACFCA0157FD079623E0959587952A95D9
:102A9000E1F7A481B5818A9F90018B9F300D9A9FA9
:102AA000300D1124620F731F078CF0A1E02DE60F8B
:102AB000F71F4770552721E030E001C0220F4A95EB
:102AC000EAF780818227B7CF08958EBD00000DB44C
:102AD00007FEFDCF8EB50895EF92FF920F931F93DF
:102AE000CF93DF937C01C62F809127049091280417
:102AF000009709F459C020912B0431E030937C03F6
:102B000020937B0310927A0310927903DC01ED91FC
:102B1000FC910190F081E02D60E009958701EE24A1
:102B2000E394F12CD1E0C1508091270490912804C6
:102B3000CF3F91F1B0E2EB16F104D8F00E94C00D46
:102B4000809127049091280420912B04D0937C033A
:102B500020937B0310927A0310927903DC01ED91AC
:102B6000FC910190F081E02D60E00995EE24E39462
:102B7000F12C8091270490912804F8016491DC01E4
:102B8000ED91FC910190F081E02D0995BFEFEB1ADA
:102B9000FB0A0F5F1F4FC7CFDF91CF911F910F919E
:102BA000FF90EF900C94C00DE0913704F091380441
:102BB000908180913D048095892380838701C15055
:102BC00008F438C0F801849120912504309126043E
:102BD000232B29F00E9465150F5F1F4FF0CF28E0CF
:102BE00030E040E8E0913304F091340490913B04EC
:102BF000582F5423D9F05081952B9083E0913504C0
:102C0000F0913604908150913C04952B9083E09193
:102C10003504F0913604508190913C0490959523B1
:102C20009083469521503109E9F6D6CF5081909591
:102C30009523E3CFDF91CF911F910F91FF90EF90FC
:102C400008951F93CF93DF93EC018D8D9E8D009798
:102C500021F1162F29A131E030937C0320937B03CF
:102C600010927A0310927903DC01ED91FC910190AE
:102C7000F081E02D60E009958D8D9E8DDC01ED9158
:102C8000FC910190F081E02D612F09958D8D9E8D35
:102C9000DF91CF911F910C94C00DADA5BEA59C9165
:102CA0008BA9809589238C938B8D9C8D892B31F0FA
:102CB000862FDF91CF911F910C94651528E030E0AD
:102CC00080E8A9A5BAA599A9462F4823C1F04C913F
:102CD000942B9C93ABA5BCA59C914AA9942B9C9347
:102CE000ABA5BCA54C919AA9909594239C938695ED
:102CF0002150310931F7DF91CF911F9108954C9107
:102D000090959423E6CF8CBD9DBD0895DF92EF9200
:102D1000FF920F931F93CF93DF938091270490919D
:102D20002804892B09F498C020913F043091400475
:102D3000409141045091420460E074E284EF90E0DD
:102D40000E94D62E205131094109510956954795C7
:102D5000379527952093B80065E086E793E10E94B8
:102D60006C1560910E0461508AE094E00E94211677
:102D70002091100430911104C901079697FD079620
:102D800033E0959587953A95E1F720910E043091BF
:102D90000F04829F8001839F100D929F100D1124BC
:102DA000C0912904D0912A0480912704909128048D
:102DB0000C0F1D1F009709F48FC020912B0431E0E8
:102DC00030937C0320937B0310927A031092790353
:102DD000DC01ED91FC910190F081E02D60E409951A
:102DE000EE24E394F12CDD24D39480912704909178
:102DF00028040C171D0709F446C0B0E2EB16F104D5
:102E0000D8F00E94C00D8091270490912804209151
:102E10002B04D0927C0320937B0310927A031092B0
:102E20007903DC01ED91FC910190F081E02D60E4EB
:102E30000995EE24E394F12C8091270490912804C5
:102E40006991DC01ED91FC910190F081E02D0995F3
:102E5000BFEFEB1AFB0AC9CF80912504909126049D
:102E6000892B31F080914804909149040E94831687
:102E7000E0913904F0913A04908180913E0480956C
:102E80008923808369CF0E94C00D8091270490918F
:102E90002804892B09F461C0209143043091440433
:102EA000409145045091460460E074E284EF90E064
:102EB0000E94D62E20513109410951095695479556
:102EC000379527952093B800DF91CF911F910F91EF
:102ED000FF90EF90DF900895E0913704F09138046F
:102EE000808190913D04892B80830C171D0769F226
:102EF00089912091250430912604232B19F00E94FA
:102F00006515F3CF28E030E040E8E0913304F0911C
:102F1000340490913B04582F5423D9F05081952BC1
:102F20009083E0913504F0913604908150913C04F7
:102F3000952B9083E0913504F09136045081909167
:102F40003C04909595239083469521503109E9F6EC
:102F5000CCCF508190959523E3CFE0913904F09147
:102F60003A04808190913E04892B8083ADCF1F93DA
:102F7000CF93DF93EC01162F8D8D9E8D892BB1F1B0
:102F80002DA93EA94FA958AD60E074E284EF90E00E
:102F90000E94D62E20513109410951095695479575
:102FA000379527952093B80066EA111167EACE019C
:102FB0000E9421168D8D9E8D892B41F129AD3AAD50
:102FC0004BAD5CAD60E074E284EF90E00E94D62EE1
:102FD0002051310941095109569547953795279553
:102FE0002093B800DF91CF911F9108958B8D9C8D18
:102FF000892B21F08EAD9FAD0E948316EFA5F8A915
:1030000090818CA9809589238083CECFEFA5F8A9E4
:1030100080819CA9892B8083E5CF0895FC01637092
:10302000668B8481958126813781613039F06330E8
:1030300029F09187808733872287089531872087F9
:103040009387828708952F923F924F925F926F925B
:103050007F928F929F92AF92BF92CF92DF92EF9228
:10306000FF920F931F93CF93DF93CDB7DEB76A978D
:103070000FB6F894DEBF0FBECDBF9A8F898F7A83CB
:1030800069834A01D22E18870F833701BC2CDC01DB
:1030900059962D913C915A972115310509F015C18A
:1030A00018968D919C911997681779070CF0D7C1E4
:1030B0001A968D919C91481759070CF0D0C14C2C51
:1030C000512CB6E0CB9E600D711D11247C876B875F
:1030D000161617060CF0C3C1EA2DF0E0FA87E9874F
:1030E00093E0EE0FFF1F9A95E1F7F88BEF87CF0182
:1030F000840F951F181619060CF0B1C1A98DBA8D51
:1031000058968C91811104C0BFEABD1508F4D39480
:10311000A98DBA8DED91FC9111970284F385E02D74
:10312000CD010995B5E0DB9EC0011124E981FA814A
:10313000FC83EB83312C212C9C0124553F4F388F8D
:103140002F8B4A2D50E05E8B4D8BEF89F88DE20D71
:10315000F31D44919E828D82D12CC12C69817A818C
:10316000620D731D7A8B698B842F90E09C8B8B8B07
:10317000E98DFA8DA081B18140FF82C0F1E0BF12DC
:103180006FC0AF126DC01C96ED91FC912F813885F8
:10319000A4014C0D5D1D69897A89898D9A8D0995E7
:1031A000EB89FC89F595E7954E2F5FEFC51AD50A97
:1031B0006D817E818D899E89680F791F7E836D83E5
:1031C00098E0C916D10481F6AFEF2A1A3A0AEB81CA
:1031D000FC81E40DF51DFC83EB83F5E02F16310433
:1031E00009F0B3CF2F81388526153705B9F0A98DA1
:1031F000BA8DED91FC91B1E0BB1257C0AB1255C036
:1032000069817A816B5F7F4F0088F189E02D8301AE
:1032100028E030E0A401898D9A8D0995A98DBA8D99
:10322000ED91FC9111970688F789E02DCD016A9602
:103230000FB6F894DEBF0FBECDBFDF91CF911F91C7
:103240000F91FF90EF90DF90CF90BF90AF909F9045
:103250008F907F906F905F904F903F902F90099448
:103260001E96ED91FC91EF80F88409851A859201F4
:103270004D815E816B817C81898D9A8D099590CF7E
:103280002F8138852615370509F48ACF31E0B3122E
:1032900007C0A31205C01C96ED91FC91930178CF55
:1032A0001E96ED91FC917301E0CF6B857C856419CE
:1032B00075090684F785E02D73010F851889920141
:1032C000A401898D9A8D0995A9CFF901349694911D
:1032D000329745915491D91AB7E0DB9E400D511DAC
:1032E0001124F901259134913C8B2B8BFA01259007
:1032F0003490FA013296749031963491398B32962B
:1033000064903196449041E04C1518F04A1508F04D
:103310007FC0662D062C000C770B7C836B83842D7D
:10332000042C000C990B9E838D83A98DBA8DED9191
:10333000FC9111970284F385E02DCD010995512C64
:10334000D12CC12CEA2DF0E0FA87E9872B2D30E053
:103350003C872B87A401440D511D47FC5A95588F7B
:103360004F8B69817A81660D711D67FC7A957E8726
:103370006D877989C71608F051CF2C2D30E04D812B
:103380005E81420F531FA985BA854A9FC0014B9F9A
:10339000900D5A9F900D1124FC01E80DF91DF88B3A
:1033A000EF87852D612C4F89588D420F531F5E8BFF
:1033B0004D8B671408F050C044244394480E877026
:1033C00041F4C1010196EB89FC89E20DF31DD49013
:1033D0001C01D7FE19C0A98DBA8DED91FC91662D07
:1033E00070E0B1E0BB1219C0AB1217C02D853E854D
:1033F000620F731F0484F585E02D2F8138854D8978
:103400005E89898D9A8D0995DD0C6394842DD1CFC9
:103410001E821D821C821B8288CF4B815C81640FBF
:10342000751FAB85BC856A9FC0016B9F900D7A9F0D
:10343000900D112469817A81680F791F0684F785C0
:10344000E02DEF80F88409851A859D014F85588904
:10345000898D9A8D0995D8CF570CC3948ACF6A96D7
:103460000FB6F894DEBF0FBECDBFDF91CF911F9195
:103470000F91FF90EF90DF90CF90BF90AF909F9013
:103480008F907F906F905F904F903F902F90089516
:103490008F929F92AF92CF92EF92FF920F931F93D2
:1034A000CF93DF93EC01262F898D9A8D009709F039
:1034B00051C06A30D1F41D861C868D8948E0849FF6
:1034C000900111248E859F85820F931F9F878E8781
:1034D00081E090E0DF91CF911F910F91FF90EF90ED
:1034E000CF90AF909F908F9008956D3089F3CC88E6
:1034F000AD888F898823C1F08C859D8536E0C39E79
:10350000800D911D1124488559854817590764F489
:103510004E855F851D861C8638E0A39EC001112460
:10352000840F951F9F878E87EA88FB8808891989F1
:103530004E855F856C857D85CE010E9423182C8980
:103540008C859D8546E0249F800D911D11249D87CB
:103550008C87BECF6A3069F41D861C86FC013896C4
:10356000E4912D898E859F85E29F800D911D112408
:10357000ADCF6D3009F4ACCFFC01349634916317B4
:1035800008F4A6CF3296E491E61708F4A1CFFC0127
:10359000329685909490462F431B342F47E0349FFA
:1035A000800C911C1124F401329634913196E491EF
:1035B0003323A9F1EE2399F1CC88F4013596E491F7
:1035C000AD884F89442301F10E2E000CFF0BE30F51
:1035D000F11DCE9EA001CF9E500D11246C857D85DE
:1035E000460F571F68857985641775076CF44E85FB
:1035F0005F851D861C86FC013896E491AE9E400DC9
:10360000511D11245F874E87EA88FB880889198934
:103610004E855F856C857D85CE010E942318F4015F
:103620003496E4912C898C859D85E29F800D911DB7
:1036300011248DCF6F927F928F929F92AF92BF9203
:10364000CF92DF92EF92FF920F931F93CF93DF936E
:10365000EC016B015A0139014801E881F9810284CA
:10366000F385E02D0995E881F9810288F389E02D41
:1036700087019301A501B601CE010995A501480D69
:10368000591D41505109E881F9810288F389E02DE3
:103690009301B601CE010995E881F9810088F1898D
:1036A000E02D9401A501B601CE010995C60CD71CE9
:1036B000B60161507109E881F9810088F189E02D36
:1036C0009401A501CE010995E881F9810688F78961
:1036D000E02DCE01DF91CF911F910F91FF90EF90E0
:1036E000DF90CF90BF90AF909F908F907F906F9022
:1036F00009946F927F928F929F92AF92BF92CF92D6
:10370000DF92EF92FF920F931F93CF93DF935C01B1
:10371000EB016A01490138018701DC01ED91FC915F
:103720006217730719F5641675062CF0962D872D10
:103730003A01C92ED82E9601261937092F5F3F4F1F
:10374000048CF58DE02DA301BE01C5010995DF9123
:10375000CF911F910F91FF90EF90DF90CF90BF908E
:10376000AF909F908F907F906F900895461557056A
:1037700091F42617370724F0892D4B01C22FD82F3B
:103780009E01281939092F5F3F4F068CF78DE02DD8
:10379000A601B401DACF0284F385E02D0995D501A5
:1037A000ED91FC910488F589E02D83019401A60137
:1037B000BE01C5010995D501ED91FC910688F789F7
:1037C000E02DC501DF91CF911F910F91FF90EF90F8
:1037D000DF90CF90BF90AF909F908F907F906F9031
:1037E0000994EF92FF920F931F93DC011A960D91AB
:1037F0001C911B9718962D913C911997ED91FC9176
:1038000000A0F1A1E02D7B0150E040E070E060E01D
:1038100009951F910F91FF90EF9008954F925F923D
:103820006F927F928F929F92AF92BF92CF92DF92D0
:10383000EF92FF920F931F93CF93DF936C012B01B5
:103840005A0139014801DC01ED91FC910284F385B4
:10385000E02D0995E201640C751CD601ED91FC91F7
:10386000C615D7055CF40088F189E02D8701940125
:10387000A501BE01C60109952196EFCF0688F789FB
:10388000E02DC601DF91CF911F910F91FF90EF9036
:10389000DF90CF90BF90AF909F908F907F906F9070
:1038A0005F904F9009948F929F92AF92BF92CF9268
:1038B000DF92EF92FF920F931F93CF93DF93EC0170
:1038C0005B014A016901E881F9810284F385E02DF9
:1038D000099595012C0D3D1D21503109E881F98193
:1038E0000488F589E02D78018401A401B501CE0199
:1038F0000995E881F9810688F789E02DCE01DF91ED
:10390000CF911F910F91FF90EF90DF90CF90BF90DC
:10391000AF909F908F9009948F929F92AF92BF9299
:10392000CF92DF92EF92FF920F931F93CF93DF938B
:10393000EC015B014A0169017801E881F9810284A7
:10394000F385E02D0995C80CD91C86010150110999
:10395000E881F9810488F589E02D9501A401B5017C
:10396000CE010995E881F9810688F789E02DCE011D
:10397000DF91CF911F910F91FF90EF90DF90CF904B
:10398000BF90AF909F908F900994EF92FF920F930A
:103990001F93DC01ED91FC9100A0F1A1E02D0995B0
:1039A0001F910F91FF90EF9008950F931F93DC01EB
:1039B000ED91FC91068CF78DE02D09951F910F91EB
:1039C00008950F931F93DC01ED91FC91048CF58D0C
:1039D000E02D09951F910F910895DC01ED91FC9167
:1039E0000084F185E02D09943F924F925F926F928F
:1039F0007F928F929F92AF92BF92CF92DF92EF927F
:103A0000FF920F931F93CF93DF9300D000D0CDB7D9
:103A1000DEB75C013B016A014901C80107969C01C0
:103A200093E0359527959A95E1F73A8329832A0102
:103A30004E0C5F1CF12CE12C312CC414D50499F1EF
:103A40001C821B828B819C810817190721F18770CA
:103A50009927330C892B61F4EB81FC8183E0F59588
:103A6000E7958A95E1F7EE0DFF1DE80DF91D3490FD
:103A700037FE0AC021E030E0A6016B817C81660D33
:103A8000771DC5010E94ED1C2B813C812F5F3F4FAC
:103A90003C832B83D7CF3FEFC31AD30A89819A8106
:103AA000E80EF91ECACF0F900F900F900F90DF9184
:103AB000CF911F910F91FF90EF90DF90CF90BF902B
:103AC000AF909F908F907F906F905F904F903F90BE
:103AD00008952F923F924F925F926F927F928F92B2
:103AE0009F92AF92BF92CF92DF92EF92FF920F938D
:103AF0001F93CF93DF9300D000D000D0CDB7DEB7B7
:103B00003C016A013E832D83FC82EB825801A41A9A
:103B1000B50AB7FE03C0B194A194B1088D809E8010
:103B2000861A970A97FE03C09194819491088A148B
:103B30009B045CF0902F812F0D811E819D838E83CD
:103B40009C2D8D2D6B01692F782F0C151D055CF0B8
:103B50009D818E817E836D83692F782F902F812F99
:103B60008601C92ED82E1601201A310A2B012D816B
:103B70003E81421A530A57FE03C0519441945108A2
:103B8000710137FE03C03FEFE31AF30AF594E7949F
:103B90008D819E81861797075CF5A1E0B0E0BA831E
:103BA000A983C016D1064CF1D301ED91FC91048498
:103BB000F585E02D2B813C81A8016D817E818A14E1
:103BC0009B041CF04D815E81B801C3010995E41886
:103BD000F508F7FE0AC02D813E8189819A81280F60
:103BE000391F3E832D83E20CF31C0F5F1F4FD9CF8B
:103BF0002FEF3FEF3A832983D4CF26960FB6F89460
:103C0000DEBF0FBECDBFDF91CF911F910F91FF900F
:103C1000EF90DF90CF90BF90AF909F908F907F906C
:103C20006F905F904F903F902F900895089590E08F
:103C300080E00895FB0101900020E9F73197AF0182
:103C4000461B570BDC01ED91FC910280F381E02DC6
:103C500009948F929F92AF92BF92EF92FF920F932F
:103C60001F93CF93DF93CDB7DEB7A1970FB6F8942C
:103C7000DEBF0FBECDBF7C01FA01CB0119A22230FD
:103C800008F42AE08E010F5D1F4F822E912CB12C7B
:103C9000A12CBF01A50194010E94D62EF901CA01F1
:103CA0006A300CF5605DD8016E938D01232B242BB7
:103CB000252B79F790E080E0109721F0BD01C70136
:103CC0000E941A1EA1960FB6F894DEBF0FBECDBF9C
:103CD000DF91CF911F910F91FF90EF90BF90AF9028
:103CE0009F908F900895695CDECFBC018AE094E0DC
:103CF0000C941A1ECF93DF93BC018AE094E00E94DB
:103D00001A1EEC0161EB71E08AE094E00E941A1E39
:103D10008C0F9D1FDF91CF91089520911004309159
:103D20001104C901079697FD079623E0959587959D
:103D30002A95E1F720910E0430910F04829FA00193
:103D4000839F500D929F500D112470E060E0809190
:103D5000290490912A040C94023185ED8093BC00D3
:103D60008091E5029091E602A091E702B091E8020D
:103D70000796A11DB11D23E0B695A7959795879548
:103D80002A95D1F72091BC0024FD03C01092320384
:103D900008954091E5025091E6026091E70270912A
:103DA000E802452B462B472B69F30097A105B10587
:103DB00041F025E32A95F1F700000197A109B10927
:103DC000E1CF8091E4020C941A0D1F93CF93DF93FF
:103DD000EC01162F0E94752E181739F0612FCE01B5
:103DE000DF91CF911F910C947D2EDF91CF911F9188
:103DF00008950C94752E2F923F924F925F926F927E
:103E00007F928F929F92AF92BF92CF92DF92EF926A
:103E1000FF920F931F93CF93DF9300D0CDB7DEB700
:103E200080917303909174030E94F91E90E09A832D
:103E3000898364EF71E080E090E00E94A70ECC24BB
:103E4000C394D12C9AE0E92EF12C03E210E025E294
:103E5000222E312C30E3A32EB12C41E3842E912C61
:103E60005FE1452E512C69E2662E712C0E948D1E59
:103E7000D0921D04C0921C04D0921B04C0921A045C
:103E800022E020931E0420931F04F0921704E09276
:103E90001604F0921904E092180484EB91E00E9459
:103EA0007A1E89819A818432910594F4EAE3F0E0E4
:103EB000F0931704E0931604109319040093180468
:103EC0008F5C9E4FFC0160818AE094E00E94481A5A
:103ED00089819A818432910561F4909317048093CB
:103EE000160410931904009318048EEB91E00E94BD
:103EF000751E89819A81859771F42DE230E03093A7
:103F0000170420931604109319040093180484ECEA
:103F100091E00E94751E89819A81869761F43092A2
:103F2000170420921604109319040093180489ECC6
:103F300091E00E94751E89819A81879761F4B09201
:103F40001704A092160410931904009318048FEC20
:103F500091E00E94751E89819A81889761F4B092E0
:103F60001704A0921604109319040093180483ED0B
:103F700091E00E94751E89819A81899761F49092DF
:103F8000170480921604109319040093180487ED07
:103F900091E00E94751E89819A818A9761F49092BE
:103FA00017048092160410931904009318048BEDE3
:103FB00091E00E94751E89819A818B9761F45092DD
:103FC00017044092160410931904009318048FEDFF
:103FD00091E00E94751E89819A818C9761F4F0921C
:103FE0001704E0921604109319040093180486EE47
:103FF00091E00E94751E89819A818D9761F470927B
:10400000170460921604109319040093180480EFAB
:1040100091E00E94751E0E9486168EE290E09093B9
:10402000760380937503CE0101960E946E0C8EE09C
:104030000E94450C892B09F019CF69818091730387
:10404000909174030E94E51E6CE271E080E090E0C4
:104050000E94A70E0F900F90DF91CF911F910F91AB
:10406000FF90EF90DF90CF90BF90AF909F908F9098
:104070007F906F905F904F903F902F900895809128
:104080007303909174030E94F91E84528A3058F58C
:10409000E82FF0E0E25BFF4D0C94F82E58205D20F5
:1040A0005F2061206320652067206E2069207120D9
:1040B00060E28AEE93E00C943A1260E8FACF61E88D
:1040C000F8CF62E8F6CF63EBF4CF61EBF2CF64EDAB
:1040D000F0CF63E88AEE93E00E943A1284E00C94F9
:1040E000131160E8F7CF08958AE090E00E94F91E6E
:1040F0008150893060F5E82FF0E0EF57FF4D0C94C8
:10410000F82E8A208F2092209920A020A3209E2084
:10411000A520A32061E88AEE93E00E943A1284E091
:104120000C94131161E88AEE93E00E943A1262E85F
:10413000F2CF60E28AEE93E00E943A1281E0F0CF83
:1041400084E00E94131182E0EBCF60E8F3CF089582
:104150000E94F4301F920F920FB60F9211242F93EA
:104160003F934F935F936F937F938F939F93AF93FF
:10417000BF93EF93FF938091B900887F803609F455
:104180004AC0F0F5883209F4A7C018F5803109F467
:104190009BC0B8F4882309F4F9C0883009F494C0AE
:1041A000FF91EF91BF91AF919F918F917F916F910F
:1041B0005F914F913F912F910F900FBE0F901F90E5
:1041C0001895883109F488C0803251F78093310303
:1041D00014C0803409F49DC040F48033B9F38833AF
:1041E000F9F68093310385ECB0C0803509F485C0C1
:1041F000883509F496C0883499F60E94AD1ED0CF58
:10420000883909F48CC038F5883729F050F488369D
:1042100011F0803729F683E0809332031092300347
:1042200057C0883809F47BC0803919F0803809F00C
:10423000B7CF80913003803208F071C0E091300335
:1042400081E08E0F809330038091BB00F0E0E05F4F
:10425000FC4F80833DC0803B39F0E0F4803A09F4A4
:1042600079C0883A09F09CCF84E0809332031092A1
:104270000D0310920C03E0910A03F0910B030995D2
:1042800080910C0381110FC081E080930C03109288
:10429000EA0209C0803C09F4A6CF883C09F4A3CF08
:1042A000883B09F07DCFE0910D0381E08E0F809374
:1042B0000D03F0E0E651FD4F80818093BB009091AB
:1042C0000D0380910C0329C0809157038093BB009C
:1042D00085EC8093BC0064CF909156038091550388
:1042E000981758F5E091560381E08E0F809356039E
:1042F000F0E0EB5CFC4F8081E9CFE091560381E078
:104300008E0F809356038091BB00F0E0EB5CFC4F76
:10431000808390915603809155039817C8F285E8E1
:10432000D8CFE091560381E08E0F809356038091A1
:10433000BB00F0E0EB5CFC4F808380913403811183
:104340005CCF81E08093330384EA8093BC001092B9
:10435000320326CF85EC8093BC001092320380910B
:104360003003803230F4E0913003F0E0E05FFC4F46
:1043700010826091300370E0E0910E03F0910F0322
:1043800080E193E00995109230030ACF1092310337
:1043900034CF1F920F920FB60F9211242F933F9399
:1043A0008F939F93AF93BF9380918E0290918F02D2
:1043B000A0919002B091910230918D0223E0230FE1
:1043C0002D3758F50196A11DB11D20938D028093C4
:1043D0008E0290938F02A0939002B09391028091ED
:1043E000920290919302A0919402B091950201964D
:1043F000A11DB11D8093920290939302A093940209
:10440000B0939502BF91AF919F918F913F912F9162
:104410000F900FBE0F901F90189526E8230F02965D
:10442000A11DB11DD2CF1F920F920FB60F92112472
:104430008F939F938091E1009091E100937F9093FF
:10444000E10083FF0FC01092E90091E09093EB0030
:104450001092EC0092E39093ED001092720398E0BA
:104460009093F00082FF22C093E09093E900909136
:10447000F200992319F09AE39093E8009091630277
:10448000992341F0909163029150909363029111AE
:1044900001C05D9A90917103992341F0909171034D
:1044A000915090937103911101C0289A84FF18C014
:1044B0008091E2008E7E81608093E2008091E10035
:1044C0008F7E8093E100809164028E7E8061809374
:1044D00064029F918F910F900FBE0F901F901895BF
:1044E00080FFF7CF8091E2008E7E80618093E200B2
:1044F0008091E1008E7E8093E100809164028E7E47
:104500008160E5CF1F920F920FB60F921124CF92C8
:10451000DF92EF92FF920F931F932F933F934F934E
:104520005F936F937F938F939F93AF93BF93EF931B
:10453000FF93CF93DF93CDB7DEB76C97DEBFCDBFD0
:104540001092E9008091E80083FF25C068E0CE0169
:1045500045960E943C1182EF8093E8008D8987FF89
:1045600039C09091E80090FFFCCF982F907609F029
:1045700034C19E894F89588D2F89F88C911131C093
:10458000803861F5809165028093F1001092F1000E
:104590008EEF8093E8006C960FB6F894DEBF0FBEE6
:1045A000CDBFDF91CF91FF91EF91BF91AF919F91DF
:1045B0008F917F916F915F914F913F912F911F91BB
:1045C0000F91FF90EF90DF90CF900F900FBE0F9064
:1045D0001F9018959EEF9093E800C7CF1092F100BE
:1045E000D5CF913059F48111D3CF4130510581F6A7
:1045F000809165028D7F80936502CACF933049F424
:104600008111C6CF4130510519F680916502826053
:10461000F2CF953041F48091E80080FFFCCF206814
:104620002093E300B5CF963009F0A9C00B8D1C8D07
:1046300022E01092E9001092610210926002F212E0
:104640002EC010925F0210925E020E94BF0F1F8266
:1046500099E09983FA8291E09E8390EA98879AEF95
:1046600099872091600230916102275F3F4F3C8320
:104670002B838D831092E9001092610210926002E8
:1046800010935F0200935E0249E050E0BE016F5F4D
:104690007F4F80E00E94130F0E94BF0F79CF1093CD
:1046A0005F0200935E020E94730BDC0112960D9173
:1046B0001C910115110509F451C1D801ED91FC912E
:1046C0000480F581E02DBE016B5E7F4FC801099526
:1046D000009709F03EC1F80100851185EACFF3E0AB
:1046E000FF120EC08F89882309F440C0823061F424
:1046F00040E860E180E296E00E94B424811148CF56
:1047000081E28093EB0047CF813029F440E86BE0F1
:1047100084E196E0F1CF833099F70E94730BDC01BE
:104720001296ED90FC908E010F5F1F4F6801E1140F
:10473000F10479F0D701ED91FC910680F781E02D2D
:10474000B801C7010995080F111DF701E084F18434
:10475000EECFD8011C92F60101900020E9F73197C5
:10476000BF016C197D0940E0C601C6CF6EEF75E050
:10477000FB01449150E080E80E94130F09CF97306D
:1047800009F4BECF983021F481E08093F10000CF8E
:10479000993009F0FDCE837009F0B2CFEFE0F1E07F
:1047A00081E031E096E32191222371F08093E900CA
:1047B0003093EB00DF0111972C912093EC00909344
:1047C000ED008F5F873079F78EE78093EA001092D3
:1047D000EA008F8980937203DBCE8B8D9C8D1092C3
:1047E000E900109261021092600290935F02809340
:1047F0005E02898D811192C08E899D89913A49F41A
:10480000813209F07DCF47E050E064E071E080E064
:10481000B3CF913209F074CF833269F48F89988DC8
:10482000B0E0A0E08093000190930101A093020109
:10483000B0930301ADCE803269F48091E80082FF2D
:10484000FCCF67E084E091E00E943C118BEF809305
:10485000E8009ECE823209F09BCE8F8980930B01B7
:10486000EEEFFFE7859194918B3F9C4D51F1E0E095
:10487000F8E08091040190910501A0910601B091AA
:104880000701803B9440A105B105F1F480910B0133
:1048900080FD1AC0EE3F8AE0F80789F587E797E7C1
:1048A00091838083809160008093620288E19BE025
:1048B0000FB6F894A895809360000FBE90936000A7
:1048C00067CEEEEFFAE0D5CF8081918187379747A9
:1048D00009F05ECEA89580916000886180936000A9
:1048E0008091620280936000EE3F2AE0F20789F037
:1048F0008091FE0A9091FF0A9183808349CE808146
:1049000091818737980751F29093FF0A8093FE0AAE
:10491000C5CF1092FF0A1092FE0A3ACE0E94730B86
:10492000DC0112960D911C910115110509F4E8CED8
:10493000D801ED91FC910190F081E02DBE016B5EFC
:104940007F4FC8010995811123CEF801008511859B
:10495000EBCF181619060CF41BCED2CEF1E0FF12E5
:10496000BECE62E076E004CFEF92FF920F931F93EA
:10497000CF93DF93F82E192FE62E042F81E0860FB8
:10498000880F0E94E50E83E00E94E50ECF2DD12F07
:10499000EC0EFD2EF11CCE15DF05B9F007FF13C09C
:1049A000FE0184910E94E50E182F80E00E94E50E22
:1049B000812321968111EFCFDF91CF911F910F912C
:1049C000FF90EF9008958881EDCF81E0F5CF1092B0
:1049D000FB031092FA0388EE93E0A0E0B0E080932E
:1049E000FC039093FD03A093FE03B093FF0329E51E
:1049F00031E03093F9032093F80310928003109272
:104A00007F038093810390938203A0938303B093E9
:104A100084038BE691E090937E0380937D038FEF78
:104A20009FEF90938A03809389031092DB03809118
:104A3000D303811113C01092CE031092CD038BE7E4
:104A400093E19093D0038093CF0386E390E090931B
:104A5000D2038093D10381E08093D3030E94870B1C
:104A6000FC01A385B485109709F0DEC08DEC93E0BE
:104A700094878387858596852091D1033091D203D1
:104A8000820F931F968785871092ED031092EC0397
:104A90008DE791E09093EB038093EA038091E2032A
:104AA000811113C01092DD031092DC0381E394E1C5
:104AB0009093DF038093DE038FE290E09093E10315
:104AC0008093E00381E08093E2030E94870BFC0166
:104AD000A385B485109709F0B2C08CED93E094875C
:104AE0008387858596852091E0033091E103820FCD
:104AF000931F9687858781EB93E19093F7038093CB
:104B0000F60310920D0410920C0420E830E030936C
:104B10000F0420930E0480E290E0909311048093A0
:104B2000100430931304209312049093150480937F
:104B3000140410922004109217041092160410927C
:104B400019041092180481E080931F0480931E04BE
:104B50002FEF3FEF30931D0420931C0430931B0470
:104B600020931A04809321041092220410922404AA
:104B70001092230489E891E090930B0480930A0437
:104B8000109226041092250488EF93E09093280455
:104B90008093270410922A04109229048FEF8093A7
:104BA0002E0480932F04809330048093310484E09A
:104BB0008093320480E58093480410924904109257
:104BC0000504109204041092070410920604109237
:104BD00009041092080467E070E090E080E00E9411
:104BE00037300097B1F1909305048093040426E0D8
:104BF00030E030930704209306042091080430919C
:104C00000904232B11F4FC01108286E090E09093BC
:104C100009048093080465EF71E080910404909189
:104C200005040C940931DC018D919C91119700973A
:104C3000D1F78DEC93E08D939C931CCFDC018D918B
:104C40009C9111970097D1F78CED93E08D939C93F5
:104C500048CF8091040490910504009711F00E94C0
:104C6000AE2F1092050410920404109209041092C1
:104C7000080410920704109206040895CF93DF935E
:104C800000D0CDB7DEB7789484B5826084BD84B59A
:104C9000816084BD85B5826085BD85B5816085BD37
:104CA00080916E00816080936E00109281008091EF
:104CB0008100826080938100809181008160809377
:104CC00081008091800081608093800080919100BC
:104CD0008260809391008091910081608093910027
:104CE000809190008160809390008091C1008460E9
:104CF0008093C1008091C10082608093C100809147
:104D0000C10081608093C1008091C3008160809365
:104D1000C3008091C00082608093C0008091C20077
:104D200081608093C20080917A00846080937A00D1
:104D300080917A00826080937A0080917A0081600D
:104D400080937A0080917A00806880937A00109234
:104D5000720310926502109264028091D700816004
:104D60008093D70080EA8093D80089B5806189BD9F
:104D700089B5826089BD09B400FEFDCF61E070E0B5
:104D800080E090E00E94A70E8091D8008F7C806127
:104D90008093D8008091E000807F8093E000809134
:104DA000E1008E7E8093E1008DE08093E200559AD1
:104DB000209A62E083E10E943B0D62E084E10E9460
:104DC0003B0D62E085E00E943B0D62E08EE00E94B8
:104DD0003B0D60E087E00E943B0D60E086E00E94B2
:104DE0003B0D62E08FE00E943B0D84E10E94770D55
:104DF00090938A028093890283E10E94770D9093B9
:104E000086028093850287E00E94450C909382027F
:104E10008093810281EB93E19093F7038093F603F3
:104E20008091290490912A04892B39F10E948D1ECA
:104E3000809110049091110460910E0470910F0400
:104E4000813291050CF0D1C0AC014052510957FF9D
:104E500002C04F5F5F4F559547956357710977FFC4
:104E600002C06F5F7F4F75956795F0E2EF2EF12CD2
:104E700003E710E023E436E0D0C020911004309125
:104E80001104C901079697FD079623E0959587952C
:104E90002A95E1F720910E0430910F04AC01429F56
:104EA000C001439F900D529F900D11240E94122F1C
:104EB00090932A0480932904892B09F0B7CF62E0EC
:104EC0008AE094E00E940E180E948D1EF7E18F2E5A
:104ED000912CE1E2AE2EB12C90E080E00E94F91E10
:104EE000E82FF0E0EE0FFF1FE55EFE4F808191811D
:104EF00090938C0280938B0284E10E94770D209125
:104F0000890230918A02821B930B909388028093CE
:104F1000870283E10E94770D2091850230918602FD
:104F2000821B930B909384028093830287E00E94FC
:104F3000450C8C01909382028093810280917F02C4
:104F400090918002892BD9F401301105C1F486E0DB
:104F50000E94450C892B09F043C28AE090E00E9430
:104F6000F91E843029F462E88AEE93E00E943A1236
:104F70004FEF70E060E090E080E00E94D01010936E
:104F8000800200937F028EE00E94450C892B09F07D
:104F900034C280917D0290917E02892B09F02DC24E
:104FA00081E090E090937E0280937D0284E190E026
:104FB0000E94F91E843248F4E82FF0E0EF5CFE4FC7
:104FC00060818AEE93E00E943A1284E190E00E94B0
:104FD000F91E843208F417C284E190E090937403C0
:104FE000809373030E943F200EC2AC0140545109CC
:104FF00057FF02C04F5F5F4F559547956255710946
:1050000077FF02C06F5F7F4F7595679510E4E12EC3
:10501000F12C02E510E023E238E08AE094E00E94FF
:10502000F41C82E080932C04809127049091280442
:10503000892B09F4DFC08CE380932B041092E302E8
:105040001092E20210927A03109279030E94FC0CF3
:105050008CEE9AE090930B0380930A038DEE9AE016
:1050600090930F0380930E038091320487FD1EC03E
:1050700061E00E943B0D61E0809132040E94CE0C01
:1050800061E070E080E090E00E94A70E60E0809117
:1050900032040E94CE0C6AE070E080E090E00E9452
:1050A000A70E61E0809132040E94CE0C809127040B
:1050B00090912804892B09F45CC120913F04309120
:1050C0004004409141045091420460E074E284EF56
:1050D00090E00E94D62E2051310941095109569580
:1050E0004795379527952093B80064E08FE396E0C5
:1050F0000E946C156091100461508AE094E00E9457
:10510000211664E08BE396E00E946C1580912C04DC
:1051100060E1813009F064E18AE094E00E942116A8
:1051200064E087E396E00E946C158FE88093470463
:1051300080910E0490910F048038910509F032C1DE
:1051400080911004909111048034910509F03AC1C6
:1051500080912C04813009F023C18FE980934704AA
:1051600012E16AED8AE094E00E942116612F8AE044
:1051700094E00E94211661E88AE094E00E942116E2
:10518000609147048AE094E00E94211669ED8AE06C
:1051900094E00E94211680912C0462E2813009F093
:1051A00061EF8AE094E00E94211666E081E396E0D8
:1051B0000E946C158091270490912804892B09F492
:1051C00005C120914304309144044091450450911D
:1051D000460460E074E284EF90E00E94D62E2051F5
:1051E00031094109510956954795379527952093DF
:1051F000B80065CE61E0809130040E943B0D61E013
:10520000809131040E943B0D80913004082E000CE7
:10521000990BFC01E75EFC4EE491F0E0EE0FFF1FFE
:10522000E350FD4E25913491309338042093370498
:10523000FC01E85CFC4EE491E0933D048091310474
:10524000082E000C990BFC01E75EFC4EE491F0E0A7
:10525000EE0FFF1FE350FD4EA591B491B0933A04B9
:10526000A0933904FC01E85CFC4EE491E0933E0419
:105270008C91E82BEC938091250490912604892B46
:1052800009F434C01FB7F89480916602811127C0D9
:10529000EAE2F3E18491E9E4F3E19491E82FF0E0AC
:1052A000EE0FFF1FE151FD4EA591B491EC91E92362
:1052B00021F461E081E10E94CE0C61E081E10E9475
:1052C0003B0D8CB580618CBD8CB580648CBD61E07C
:1052D0008FE00E943B0D61E080E10E943B0D8091D8
:1052E00066028F5F809366021FBFBECE61E0809131
:1052F0002E040E943B0D61E080912F040E943B0D23
:1053000080912E04082E000C990BFC01E75EFC4EE8
:10531000E491F0E0EE0FFF1FE350FD4E2591349134
:105320003093340420933304FC01E85CFC4EE49198
:10533000E0933B0480912F04082E000C990BFC0194
:10534000E75EFC4EE491F0E0EE0FFF1FE350FD4EF0
:10535000A591B491B0933604A0933504FC01E85CA8
:10536000FC4EE491E0933C048C91E095E823EC93AF
:105370007BCE8091250490912604892B31F0809179
:105380004804909149040E948316E0913904F091F9
:105390003A04908180913E04809589238083A5CE34
:1053A0008FECDCCE8036910569F4809110049091E9
:1053B0001104409739F480912C04813029F480E164
:1053C0008093470412E0CDCE8FEAFACFE091390402
:1053D000F0913A04808190913E04892B80836FCDB7
:1053E0008AE090E00E94F91E843029F462E88AEE97
:1053F00093E00E943A1241E0BCCD8EE00E94450C41
:10540000892B09F010C185E00E94450C892B39F4E5
:105410008091770290917802892B09F433C185E05D
:105420000E94450C892B09F052C18AE090E00E944D
:10543000F91E81117BC110927602109275020E94B2
:10544000D90E009171021091720220917302309175
:105450007402AB01BC01401B510B620B730B8091BA
:10546000750290917602092E000CAA0BBB0B8417D3
:105470009507A607B707E8F50E94D90E6093710259
:10548000709372028093730290937402E09087028B
:10549000F09088028701015F1F4F0F31110570F0F6
:1054A0000E94742060918B0270918C02C7010E944F
:1054B000C22E40E090E080E00E94D010E090830295
:1054C000F0908402C7010F964F9708F4BCC30E9466
:1054D000742060918B0270918C02C7010E94C22ED1
:1054E000CB0140E070E060E09195819591090E94C8
:1054F000D01080916B0290916C02892BF1F5809114
:105500000C0190910D010197F9F4D12CC12C0E944E
:105510008D1E8601000F111F760123EE3AE050E048
:1055200040E070E060E08AE094E00E94F41C0E9499
:10553000861656E0C50ED11C88E7C816D10439F787
:1055400010920D0110920C010E948D1E50E4E52E68
:10555000F12C00E810E023EE3AE050E040E070E08B
:1055600060E08AE094E00E94F41C0E94861681E0CC
:1055700090E090936C0280936B028FE00E94450C48
:10558000892B09F040C08EE00E94450C892BD9F58B
:1055900064EF71E080E090E00E94A70E0E942F115E
:1055A00084E00E94031181E00E94031182E00E94C6
:1055B000031135E0232E312CCC24C394D12C30920E
:1055C00076032092750389E692E00E946E0C0091AA
:1055D000690210916A020230110509F4DAC20CF076
:1055E000B3C00115110509F400C10130110509F41A
:1055F0009CC110926C0210926B0280916702909194
:105600006802892BE1F210926802109267021092F0
:105610006A021092690280E090E0892B09F45CCC68
:105620000E94000056CC80917D0290917E02892BD1
:1056300009F4E9CE10927E0210927D020E94D90EEA
:105640000091790210917A0220917B0230917C02C4
:10565000601B710B820B930B633371058105910500
:1056600008F4D1CE0E94D90E6093790270937A0229
:1056700080937B0290937C0284E00E9403110E943D
:105680002F11C1CE81E090E0909378028093770251
:105690008EE190E00E94F91E843248F4E82FF0E099
:1056A000EF5CFE4F60818AEE93E00E943A128EE139
:1056B00090E00E94F91E843208F4B7CE8EE190E0AB
:1056C00090937403809373030E943F20AECE809129
:1056D000770290917802892B09F4A7CE1092780274
:1056E000109277020E94D90E0091790210917A02ED
:1056F00020917B0230917C02601B710B820B930B1B
:10570000633371058105910508F48FCE0E94D90E8F
:105710006093790270937A0280937B0290937C026B
:1057200084E00E9403110E942F117FCE8EE190E051
:10573000909376028093750282CE8EE00E94450C93
:10574000019709F08AC290C20330110509F451C2D1
:105750000430110509F04DCF0E948D1E80E4E82E23
:10576000F12C00E810E023EE3EE050E040E070E075
:1057700060E08AE094E00E94F41CD0921D04C09284
:105780001C04D0921B04C0921A0481E080931E0472
:1057900080931F048FE290E0909317048093160487
:1057A00086E390E0909319048093180440910804D4
:1057B0005091090460910404709105048AE094E01A
:1057C0000E94491161EB71E08AE094E00E941A1E88
:1057D0000E9486168EE00E94450C892B09F009CFA5
:1057E000D0926802C092670204CF0E948D1ED092B0
:1057F0001D04C0921C04D0921B04C0921A0482E0C3
:1058000080931E0480931F048BE090E09093170414
:105810008093160489E190E0909319048093180412
:105820008CEF91E00E947A1E0E9486168EE00E9404
:10583000450C892B09F0DDCE90E080E00E94F91E36
:1058400090E09A8389836CE271E080E090E00E94AE
:10585000A70E0AE010E023E2E22EF12C0E948D1E3A
:10586000D0921D04C0921C04D0921B04C0921A0452
:1058700092E090931E0490931F04109317040093DA
:10588000160410931904009318048CEF91E00E9401
:105890007A1E48E350E05093170440931604F092A8
:1058A0001904E092180449805A805FEF451A550A9E
:1058B000052C000C660877082AE0B301A20177FEE8
:1058C0000DC06DE28AE094E00E94481A44275527F3
:1058D000BA0144195509660977092AE08AE094E07B
:1058E0000E94291E0E94861630927603209275032C
:1058F000CE0101960E946E0C8EE00E94450C892B11
:1059000009F0ACCF198190E080E00E94752E181745
:1059100029F0612F90E080E00E947D2E6CE271E022
:1059200080E090E00E94A70E64CE0E948D1E10932E
:105930001D0400931C0410931B0400931A0482E0BE
:1059400080931E0480931F0480E190E090931704DD
:105950008093160489E190E09093190480931804D1
:1059600086E092E00E947A1E0E9486168EE00E94D7
:10597000450C892B09F03DCE8AE090E00E94F91E8B
:1059800090E09A8389836CE271E080E090E00E946D
:10599000A70E9AE0E92EF12C03E210E00E948D1E82
:1059A000D0921D04C0921C04D0921B04C0921A0411
:1059B00082E080931E0480931F0440E150E05093E6
:1059C000170440931604F0921904E092180486E03C
:1059D00092E00E947A1E89819A81892B61F4B092AB
:1059E0001704A092160410931904009318048FE072
:1059F00092E00E94751E89819A81019771F481E17C
:105A000090E0909317048093160410931904009368
:105A1000180485E192E00E94751E89819A8102979F
:105A200061F4F0921704E0921604109319040093A5
:105A3000180486EE91E00E94751E89819A81039771
:105A400061F4909217048092160410931904009345
:105A500018048EE192E00E94751E89819A81049754
:105A600061F4B0921704A0921604109319040093E5
:105A7000180486E292E00E94751E89819A8105973A
:105A800061F4909217048092160410931904009305
:105A900018048CE292E00E94751E89819A81069713
:105AA00061F4B0921704A0921604109319040093A5
:105AB000180484E392E00E94751E89819A810797F9
:105AC00071F44CE150E05093170440931604109386
:105AD0001904009318048AE392E00E94751E8981DC
